{
  "_format": "hh-sol-artifact-1",
  "contractName": "CredentialRegistry",
  "sourceName": "contracts/CredentialRegistry.sol",
  "abi": [
    {
      "anonymous": false,
      "inputs": [
        {
          "indexed": false,
          "internalType": "string",
          "name": "uid",
          "type": "string"
        },
        {
          "indexed": false,
          "internalType": "string",
          "name": "hash",
          "type": "string"
        },
        {
          "indexed": false,
          "internalType": "uint256",
          "name": "timestamp",
          "type": "uint256"
        }
      ],
      "name": "CredentialStored",
      "type": "event"
    },
    {
      "inputs": [
        {
          "internalType": "string",
          "name": "",
          "type": "string"
        }
      ],
      "name": "credentials",
      "outputs": [
        {
          "internalType": "string",
          "name": "uid",
          "type": "string"
        },
        {
          "internalType": "string",
          "name": "hash",
          "type": "string"
        },
        {
          "internalType": "uint256",
          "name": "timestamp",
          "type": "uint256"
        }
      ],
      "stateMutability": "view",
      "type": "function"
    },
    {
      "inputs": [
        {
          "internalType": "string",
          "name": "uid",
          "type": "string"
        }
      ],
      "name": "getCredential",
      "outputs": [
        {
          "internalType": "string",
          "name": "",
          "type": "string"
        },
        {
          "internalType": "uint256",
          "name": "",
          "type": "uint256"
        }
      ],
      "stateMutability": "view",
      "type": "function"
    },
    {
      "inputs": [
        {
          "internalType": "string",
          "name": "uid",
          "type": "string"
        },
        {
          "internalType": "string",
          "name": "hash",
          "type": "string"
        }
      ],
      "name": "storeCredential",
      "outputs": [],
      "stateMutability": "nonpayable",
      "type": "function"
    }
  ],
  "bytecode": "0x6080604052348015600f57600080fd5b50610c278061001f6000396000f3fe608060405234801561001057600080fd5b50600436106100415760003560e01c8063720f019414610046578063bf4af9b114610062578063d091187f14610094575b600080fd5b610060600480360381019061005b919061061a565b6100c5565b005b61007c60048036038101906100779190610692565b6101fe565b60405161008b93929190610773565b60405180910390f35b6100ae60048036038101906100a99190610692565b61034e565b6040516100bc9291906107b8565b60405180910390f35b6000825111610109576040517f08c379a000000000000000000000000000000000000000000000000000000000815260040161010090610834565b60405180910390fd5b600081511161014d576040517f08c379a0000000000000000000000000000000000000000000000000000000008152600401610144906108a0565b60405180910390fd5b60405180606001604052808381526020018281526020014281525060008360405161017891906108fc565b9081526020016040518091039020600082015181600001908161019b9190610b1f565b5060208201518160010190816101b19190610b1f565b50604082015181600201559050507f0c45b7dfda23f22240897a94bd4d1f49e4e0ca2120780810d8e4f88baac13daf8282426040516101f293929190610773565b60405180910390a15050565b60008180516020810182018051848252602083016020850120818352809550505050505060009150905080600001805461023790610942565b80601f016020809104026020016040519081016040528092919081815260200182805461026390610942565b80156102b05780601f10610285576101008083540402835291602001916102b0565b820191906000526020600020905b81548152906001019060200180831161029357829003601f168201915b5050505050908060010180546102c590610942565b80601f01602080910402602001604051908101604052809291908181526020018280546102f190610942565b801561033e5780601f106103135761010080835404028352916020019161033e565b820191906000526020600020905b81548152906001019060200180831161032157829003601f168201915b5050505050908060020154905083565b606060008060008460405161036391906108fc565b908152602001604051809103902060405180606001604052908160008201805461038c90610942565b80601f01602080910402602001604051908101604052809291908181526020018280546103b890610942565b80156104055780601f106103da57610100808354040283529160200191610405565b820191906000526020600020905b8154815290600101906020018083116103e857829003601f168201915b5050505050815260200160018201805461041e90610942565b80601f016020809104026020016040519081016040528092919081815260200182805461044a90610942565b80156104975780601f1061046c57610100808354040283529160200191610497565b820191906000526020600020905b81548152906001019060200180831161047a57829003601f168201915b505050505081526020016002820154815250509050806020015181604001519250925050915091565b6000604051905090565b600080fd5b600080fd5b600080fd5b600080fd5b6000601f19601f8301169050919050565b7f4e487b7100000000000000000000000000000000000000000000000000000000600052604160045260246000fd5b610527826104de565b810181811067ffffffffffffffff82111715610546576105456104ef565b5b80604052505050565b60006105596104c0565b9050610565828261051e565b919050565b600067ffffffffffffffff821115610585576105846104ef565b5b61058e826104de565b9050602081019050919050565b82818337600083830152505050565b60006105bd6105b88461056a565b61054f565b9050828152602081018484840111156105d9576105d86104d9565b5b6105e484828561059b565b509392505050565b600082601f830112610601576106006104d4565b5b81356106118482602086016105aa565b91505092915050565b60008060408385031215610631576106306104ca565b5b600083013567ffffffffffffffff81111561064f5761064e6104cf565b5b61065b858286016105ec565b925050602083013567ffffffffffffffff81111561067c5761067b6104cf565b5b610688858286016105ec565b9150509250929050565b6000602082840312156106a8576106a76104ca565b5b600082013567ffffffffffffffff8111156106c6576106c56104cf565b5b6106d2848285016105ec565b91505092915050565b600081519050919050565b600082825260208201905092915050565b60005b838110156107155780820151818401526020810190506106fa565b60008484015250505050565b600061072c826106db565b61073681856106e6565b93506107468185602086016106f7565b61074f816104de565b840191505092915050565b6000819050919050565b61076d8161075a565b82525050565b6000606082019050818103600083015261078d8186610721565b905081810360208301526107a18185610721565b90506107b06040830184610764565b949350505050565b600060408201905081810360008301526107d28185610721565b90506107e16020830184610764565b9392505050565b7f5549442072657175697265640000000000000000000000000000000000000000600082015250565b600061081e600c836106e6565b9150610829826107e8565b602082019050919050565b6000602082019050818103600083015261084d81610811565b9050919050565b7f4861736820726571756972656400000000000000000000000000000000000000600082015250565b600061088a600d836106e6565b915061089582610854565b602082019050919050565b600060208201905081810360008301526108b98161087d565b9050919050565b600081905092915050565b60006108d6826106db565b6108e081856108c0565b93506108f08185602086016106f7565b80840191505092915050565b600061090882846108cb565b915081905092915050565b7f4e487b7100000000000000000000000000000000000000000000000000000000600052602260045260246000fd5b6000600282049050600182168061095a57607f821691505b60208210810361096d5761096c610913565b5b50919050565b60008190508160005260206000209050919050565b60006020601f8301049050919050565b600082821b905092915050565b6000600883026109d57fffffffffffffffffffffffffffffffffffffffffffffffffffffffffffffffff82610998565b6109df8683610998565b95508019841693508086168417925050509392505050565b6000819050919050565b6000610a1c610a17610a128461075a565b6109f7565b61075a565b9050919050565b6000819050919050565b610a3683610a01565b610a4a610a4282610a23565b8484546109a5565b825550505050565b600090565b610a5f610a52565b610a6a818484610a2d565b505050565b5b81811015610a8e57610a83600082610a57565b600181019050610a70565b5050565b601f821115610ad357610aa481610973565b610aad84610988565b81016020851015610abc578190505b610ad0610ac885610988565b830182610a6f565b50505b505050565b600082821c905092915050565b6000610af660001984600802610ad8565b1980831691505092915050565b6000610b0f8383610ae5565b9150826002028217905092915050565b610b28826106db565b67ffffffffffffffff811115610b4157610b406104ef565b5b610b4b8254610942565b610b56828285610a92565b600060209050601f831160018114610b895760008415610b77578287015190505b610b818582610b03565b865550610be9565b601f198416610b9786610973565b60005b82811015610bbf57848901518255600182019150602085019450602081019050610b9a565b86831015610bdc5784890151610bd8601f891682610ae5565b8355505b6001600288020188555050505b50505050505056fea2646970667358221220e8cc3677fdb96b8e1f3c4ecd6a50421af27235268d51a76095504663a3ec421964736f6c634300081c0033",
  "linkReferences": {},
  "deployedLinkReferences": {}
}