{
  "_format": "hh-sol-artifact-1",
  "contractName": "DataRegistry",
  "sourceName": "contracts/DataRegistry.sol",
  "abi": [
    {
      "inputs": [],
      "stateMutability": "nonpayable",
      "type": "constructor"
    },
    {
      "anonymous": false,
      "inputs": [
        {
          "indexed": true,
          "internalType": "string",
          "name": "therapistUid",
          "type": "string"
        },
        {
          "indexed": false,
          "internalType": "string",
          "name": "hash",
          "type": "string"
        },
        {
          "indexed": false,
          "internalType": "uint256",
          "name": "timestamp",
          "type": "uint256"
        }
      ],
      "name": "CredentialStored",
      "type": "event"
    },
    {
      "anonymous": false,
      "inputs": [
        {
          "indexed": true,
          "internalType": "string",
          "name": "bookingId",
          "type": "string"
        },
        {
          "indexed": false,
          "internalType": "string",
          "name": "therapistId",
          "type": "string"
        },
        {
          "indexed": false,
          "internalType": "string",
          "name": "hash",
          "type": "string"
        },
        {
          "indexed": false,
          "internalType": "uint256",
          "name": "timestamp",
          "type": "uint256"
        }
      ],
      "name": "MedicalRecordAdded",
      "type": "event"
    },
    {
      "inputs": [
        {
          "internalType": "string",
          "name": "bookingId",
          "type": "string"
        },
        {
          "internalType": "string",
          "name": "therapistId",
          "type": "string"
        },
        {
          "internalType": "string",
          "name": "hash",
          "type": "string"
        }
      ],
      "name": "addMedicalRecord",
      "outputs": [],
      "stateMutability": "nonpayable",
      "type": "function"
    },
    {
      "inputs": [],
      "name": "admin",
      "outputs": [
        {
          "internalType": "address",
          "name": "",
          "type": "address"
        }
      ],
      "stateMutability": "view",
      "type": "function"
    },
    {
      "inputs": [
        {
          "internalType": "string",
          "name": "therapistUid",
          "type": "string"
        }
      ],
      "name": "getCredential",
      "outputs": [
        {
          "internalType": "string",
          "name": "hash",
          "type": "string"
        },
        {
          "internalType": "uint256",
          "name": "timestamp",
          "type": "uint256"
        }
      ],
      "stateMutability": "view",
      "type": "function"
    },
    {
      "inputs": [
        {
          "internalType": "string",
          "name": "bookingId",
          "type": "string"
        }
      ],
      "name": "getMedicalRecordProof",
      "outputs": [
        {
          "internalType": "string",
          "name": "therapistId",
          "type": "string"
        },
        {
          "internalType": "string",
          "name": "hash",
          "type": "string"
        },
        {
          "internalType": "uint256",
          "name": "timestamp",
          "type": "uint256"
        }
      ],
      "stateMutability": "view",
      "type": "function"
    },
    {
      "inputs": [
        {
          "internalType": "string",
          "name": "therapistUid",
          "type": "string"
        },
        {
          "internalType": "string",
          "name": "hash",
          "type": "string"
        }
      ],
      "name": "storeCredential",
      "outputs": [],
      "stateMutability": "nonpayable",
      "type": "function"
    }
  ],
  "bytecode": "0x6080604052348015600f57600080fd5b50336000806101000a81548173ffffffffffffffffffffffffffffffffffffffff021916908373ffffffffffffffffffffffffffffffffffffffff1602179055506115008061005f6000396000f3fe608060405234801561001057600080fd5b50600436106100575760003560e01c8063285ba0971461005c578063720f019414610078578063d091187f14610094578063dfbf45a9146100c5578063f851a440146100f7575b600080fd5b610076600480360381019061007191906109cc565b610115565b005b610092600480360381019061008d9190610a73565b6103a7565b005b6100ae60048036038101906100a99190610aeb565b6105cc565b6040516100bc929190610bcc565b60405180910390f35b6100df60048036038101906100da9190610aeb565b6106a2565b6040516100ee93929190610bfc565b60405180910390f35b6100ff61084e565b60405161010c9190610c82565b60405180910390f35b60008054906101000a900473ffffffffffffffffffffffffffffffffffffffff1673ffffffffffffffffffffffffffffffffffffffff163373ffffffffffffffffffffffffffffffffffffffff16146101a3576040517f08c379a000000000000000000000000000000000000000000000000000000000815260040161019a90610d0f565b60405180910390fd5b60006001846040516101b59190610d6b565b908152602001604051809103902060010180546101d190610db1565b905014610213576040517f08c379a000000000000000000000000000000000000000000000000000000000815260040161020a90610e54565b60405180910390fd5b6000835111610257576040517f08c379a000000000000000000000000000000000000000000000000000000000815260040161024e90610ee6565b60405180910390fd5b600082511161029b576040517f08c379a000000000000000000000000000000000000000000000000000000000815260040161029290610f78565b60405180910390fd5b60008151116102df576040517f08c379a00000000000000000000000000000000000000000000000000000000081526004016102d69061100a565b60405180910390fd5b60405180606001604052808381526020018281526020014281525060018460405161030a9190610d6b565b9081526020016040518091039020600082015181600001908161032d91906111d6565b50602082015181600101908161034391906111d6565b50604082015181600201559050508260405161035f9190610d6b565b60405180910390207f62f4abd0c61a72ce478f25bc048cfb6cf4659264621cfec56b5fcc77b4e8435583834260405161039a93929190610bfc565b60405180910390a2505050565b60008054906101000a900473ffffffffffffffffffffffffffffffffffffffff1673ffffffffffffffffffffffffffffffffffffffff163373ffffffffffffffffffffffffffffffffffffffff1614610435576040517f08c379a000000000000000000000000000000000000000000000000000000000815260040161042c90610d0f565b60405180910390fd5b6000825111610479576040517f08c379a0000000000000000000000000000000000000000000000000000000008152600401610470906112f4565b60405180910390fd5b60008151116104bd576040517f08c379a00000000000000000000000000000000000000000000000000000000081526004016104b490611386565b60405180910390fd5b60006002836040516104cf9190610d6b565b908152602001604051809103902080546104e890610db1565b90501461052a576040517f08c379a000000000000000000000000000000000000000000000000000000000815260040161052190611418565b60405180910390fd5b8060028360405161053b9190610d6b565b9081526020016040518091039020908161055591906111d6565b50426003836040516105679190610d6b565b908152602001604051809103902081905550816040516105879190610d6b565b60405180910390207f0c45b7dfda23f22240897a94bd4d1f49e4e0ca2120780810d8e4f88baac13daf82426040516105c0929190610bcc565b60405180910390a25050565b606060006002836040516105e09190610d6b565b90815260200160405180910390206003846040516105fe9190610d6b565b90815260200160405180910390205481805461061990610db1565b80601f016020809104026020016040519081016040528092919081815260200182805461064590610db1565b80156106925780601f1061066757610100808354040283529160200191610692565b820191906000526020600020905b81548152906001019060200180831161067557829003601f168201915b5050505050915091509150915091565b6060806000806001856040516106b89190610d6b565b9081526020016040518091039020905060008160010180546106d990610db1565b90501161071b576040517f08c379a0000000000000000000000000000000000000000000000000000000008152600401610712906114aa565b60405180910390fd5b8060000181600101826002015482805461073490610db1565b80601f016020809104026020016040519081016040528092919081815260200182805461076090610db1565b80156107ad5780601f10610782576101008083540402835291602001916107ad565b820191906000526020600020905b81548152906001019060200180831161079057829003601f168201915b505050505092508180546107c090610db1565b80601f01602080910402602001604051908101604052809291908181526020018280546107ec90610db1565b80156108395780601f1061080e57610100808354040283529160200191610839565b820191906000526020600020905b81548152906001019060200180831161081c57829003601f168201915b50505050509150935093509350509193909250565b60008054906101000a900473ffffffffffffffffffffffffffffffffffffffff1681565b6000604051905090565b600080fd5b600080fd5b600080fd5b600080fd5b6000601f19601f8301169050919050565b7f4e487b7100000000000000000000000000000000000000000000000000000000600052604160045260246000fd5b6108d982610890565b810181811067ffffffffffffffff821117156108f8576108f76108a1565b5b80604052505050565b600061090b610872565b905061091782826108d0565b919050565b600067ffffffffffffffff821115610937576109366108a1565b5b61094082610890565b9050602081019050919050565b82818337600083830152505050565b600061096f61096a8461091c565b610901565b90508281526020810184848401111561098b5761098a61088b565b5b61099684828561094d565b509392505050565b600082601f8301126109b3576109b2610886565b5b81356109c384826020860161095c565b91505092915050565b6000806000606084860312156109e5576109e461087c565b5b600084013567ffffffffffffffff811115610a0357610a02610881565b5b610a0f8682870161099e565b935050602084013567ffffffffffffffff811115610a3057610a2f610881565b5b610a3c8682870161099e565b925050604084013567ffffffffffffffff811115610a5d57610a5c610881565b5b610a698682870161099e565b9150509250925092565b60008060408385031215610a8a57610a8961087c565b5b600083013567ffffffffffffffff811115610aa857610aa7610881565b5b610ab48582860161099e565b925050602083013567ffffffffffffffff811115610ad557610ad4610881565b5b610ae18582860161099e565b9150509250929050565b600060208284031215610b0157610b0061087c565b5b600082013567ffffffffffffffff811115610b1f57610b1e610881565b5b610b2b8482850161099e565b91505092915050565b600081519050919050565b600082825260208201905092915050565b60005b83811015610b6e578082015181840152602081019050610b53565b60008484015250505050565b6000610b8582610b34565b610b8f8185610b3f565b9350610b9f818560208601610b50565b610ba881610890565b840191505092915050565b6000819050919050565b610bc681610bb3565b82525050565b60006040820190508181036000830152610be68185610b7a565b9050610bf56020830184610bbd565b9392505050565b60006060820190508181036000830152610c168186610b7a565b90508181036020830152610c2a8185610b7a565b9050610c396040830184610bbd565b949350505050565b600073ffffffffffffffffffffffffffffffffffffffff82169050919050565b6000610c6c82610c41565b9050919050565b610c7c81610c61565b82525050565b6000602082019050610c976000830184610c73565b92915050565b7f444154455245473a204f6e6c792061646d696e20286261636b656e642920636160008201527f6e20706572666f726d207468697320616374696f6e2e00000000000000000000602082015250565b6000610cf9603683610b3f565b9150610d0482610c9d565b604082019050919050565b60006020820190508181036000830152610d2881610cec565b9050919050565b600081905092915050565b6000610d4582610b34565b610d4f8185610d2f565b9350610d5f818560208601610b50565b80840191505092915050565b6000610d778284610d3a565b915081905092915050565b7f4e487b7100000000000000000000000000000000000000000000000000000000600052602260045260246000fd5b60006002820490506001821680610dc957607f821691505b602082108103610ddc57610ddb610d82565b5b50919050565b7f444154455245473a205265636f72642070726f6f6620616c726561647920657860008201527f6973747320666f72207468697320626f6f6b696e672049442e00000000000000602082015250565b6000610e3e603983610b3f565b9150610e4982610de2565b604082019050919050565b60006020820190508181036000830152610e6d81610e31565b9050919050565b7f444154455245473a20426f6f6b696e672049442063616e6e6f7420626520656d60008201527f7074792e00000000000000000000000000000000000000000000000000000000602082015250565b6000610ed0602483610b3f565b9150610edb82610e74565b604082019050919050565b60006020820190508181036000830152610eff81610ec3565b9050919050565b7f444154455245473a205468657261706973742049442063616e6e6f742062652060008201527f656d7074792e0000000000000000000000000000000000000000000000000000602082015250565b6000610f62602683610b3f565b9150610f6d82610f06565b604082019050919050565b60006020820190508181036000830152610f9181610f55565b9050919050565b7f444154455245473a2048617368202870726f6f66292063616e6e6f742062652060008201527f656d7074792e0000000000000000000000000000000000000000000000000000602082015250565b6000610ff4602683610b3f565b9150610fff82610f98565b604082019050919050565b6000602082019050818103600083015261102381610fe7565b9050919050565b60008190508160005260206000209050919050565b60006020601f8301049050919050565b600082821b905092915050565b60006008830261108c7fffffffffffffffffffffffffffffffffffffffffffffffffffffffffffffffff8261104f565b611096868361104f565b95508019841693508086168417925050509392505050565b6000819050919050565b60006110d36110ce6110c984610bb3565b6110ae565b610bb3565b9050919050565b6000819050919050565b6110ed836110b8565b6111016110f9826110da565b84845461105c565b825550505050565b600090565b611116611109565b6111218184846110e4565b505050565b5b818110156111455761113a60008261110e565b600181019050611127565b5050565b601f82111561118a5761115b8161102a565b6111648461103f565b81016020851015611173578190505b61118761117f8561103f565b830182611126565b50505b505050565b600082821c905092915050565b60006111ad6000198460080261118f565b1980831691505092915050565b60006111c6838361119c565b9150826002028217905092915050565b6111df82610b34565b67ffffffffffffffff8111156111f8576111f76108a1565b5b6112028254610db1565b61120d828285611149565b600060209050601f831160018114611240576000841561122e578287015190505b61123885826111ba565b8655506112a0565b601f19841661124e8661102a565b60005b8281101561127657848901518255600182019150602085019450602081019050611251565b86831015611293578489015161128f601f89168261119c565b8355505b6001600288020188555050505b505050505050565b7f444154455245473a20546865726170697374205549442072657175697265642e600082015250565b60006112de602083610b3f565b91506112e9826112a8565b602082019050919050565b6000602082019050818103600083015261130d816112d1565b9050919050565b7f444154455245473a2043726564656e7469616c2048617368207265717569726560008201527f642e000000000000000000000000000000000000000000000000000000000000602082015250565b6000611370602283610b3f565b915061137b82611314565b604082019050919050565b6000602082019050818103600083015261139f81611363565b9050919050565b7f444154455245473a2043726564656e7469616c20616c72656164792073746f7260008201527f65642e0000000000000000000000000000000000000000000000000000000000602082015250565b6000611402602383610b3f565b915061140d826113a6565b604082019050919050565b60006020820190508181036000830152611431816113f5565b9050919050565b7f444154455245473a204d65646963616c207265636f72642070726f6f66206e6f60008201527f7420666f756e6420666f7220746869732049442e000000000000000000000000602082015250565b6000611494603483610b3f565b915061149f82611438565b604082019050919050565b600060208201905081810360008301526114c381611487565b905091905056fea264697066735822122091d4af867364aedc5ef747ac36377f1d77dfc8ede4121a1f2edbacff40e295e264736f6c634300081c0033",
  "linkReferences": {},
  "deployedLinkReferences": {}
}