{
  "_format": "hh-sol-artifact-1",
  "contractName": "DataRegistry",
  "sourceName": "contracts/DataRegistry.sol",
  "abi": [
    {
      "inputs": [],
      "stateMutability": "nonpayable",
      "type": "constructor"
    },
    {
      "anonymous": false,
      "inputs": [
        {
          "indexed": true,
          "internalType": "string",
          "name": "bookingId",
          "type": "string"
        },
        {
          "indexed": false,
          "internalType": "string",
          "name": "therapistId",
          "type": "string"
        },
        {
          "indexed": false,
          "internalType": "string",
          "name": "hash",
          "type": "string"
        },
        {
          "indexed": false,
          "internalType": "uint256",
          "name": "timestamp",
          "type": "uint256"
        }
      ],
      "name": "MedicalRecordAdded",
      "type": "event"
    },
    {
      "inputs": [
        {
          "internalType": "string",
          "name": "bookingId",
          "type": "string"
        },
        {
          "internalType": "string",
          "name": "therapistId",
          "type": "string"
        },
        {
          "internalType": "string",
          "name": "hash",
          "type": "string"
        }
      ],
      "name": "addMedicalRecord",
      "outputs": [],
      "stateMutability": "nonpayable",
      "type": "function"
    },
    {
      "inputs": [],
      "name": "admin",
      "outputs": [
        {
          "internalType": "address",
          "name": "",
          "type": "address"
        }
      ],
      "stateMutability": "view",
      "type": "function"
    },
    {
      "inputs": [
        {
          "internalType": "string",
          "name": "bookingId",
          "type": "string"
        }
      ],
      "name": "getMedicalRecordProof",
      "outputs": [
        {
          "internalType": "string",
          "name": "therapistId",
          "type": "string"
        },
        {
          "internalType": "string",
          "name": "hash",
          "type": "string"
        },
        {
          "internalType": "uint256",
          "name": "timestamp",
          "type": "uint256"
        }
      ],
      "stateMutability": "view",
      "type": "function"
    }
  ],
  "bytecode": "0x6080604052348015600f57600080fd5b50336000806101000a81548173ffffffffffffffffffffffffffffffffffffffff021916908373ffffffffffffffffffffffffffffffffffffffff160217905550610b018061005f6000396000f3fe608060405234801561001057600080fd5b50600436106100415760003560e01c8063285ba09714610046578063dfbf45a914610062578063f851a44014610094575b600080fd5b610060600480360381019061005b91906104df565b6100b2565b005b61007c60048036038101906100779190610586565b610208565b60405161008b93929190610667565b60405180910390f35b61009c610361565b6040516100a991906106ed565b60405180910390f35b60008054906101000a900473ffffffffffffffffffffffffffffffffffffffff1673ffffffffffffffffffffffffffffffffffffffff163373ffffffffffffffffffffffffffffffffffffffff1614610140576040517f08c379a00000000000000000000000000000000000000000000000000000000081526004016101379061077a565b60405180910390fd5b60405180606001604052808381526020018281526020014281525060018460405161016b91906107d6565b9081526020016040518091039020600082015181600001908161018e91906109f9565b5060208201518160010190816101a491906109f9565b5060408201518160020155905050826040516101c091906107d6565b60405180910390207f62f4abd0c61a72ce478f25bc048cfb6cf4659264621cfec56b5fcc77b4e843558383426040516101fb93929190610667565b60405180910390a2505050565b60608060008060018560405161021e91906107d6565b90815260200160405180910390209050806000018160010182600201548280546102479061081c565b80601f01602080910402602001604051908101604052809291908181526020018280546102739061081c565b80156102c05780601f10610295576101008083540402835291602001916102c0565b820191906000526020600020905b8154815290600101906020018083116102a357829003601f168201915b505050505092508180546102d39061081c565b80601f01602080910402602001604051908101604052809291908181526020018280546102ff9061081c565b801561034c5780601f106103215761010080835404028352916020019161034c565b820191906000526020600020905b81548152906001019060200180831161032f57829003601f168201915b50505050509150935093509350509193909250565b60008054906101000a900473ffffffffffffffffffffffffffffffffffffffff1681565b6000604051905090565b600080fd5b600080fd5b600080fd5b600080fd5b6000601f19601f8301169050919050565b7f4e487b7100000000000000000000000000000000000000000000000000000000600052604160045260246000fd5b6103ec826103a3565b810181811067ffffffffffffffff8211171561040b5761040a6103b4565b5b80604052505050565b600061041e610385565b905061042a82826103e3565b919050565b600067ffffffffffffffff82111561044a576104496103b4565b5b610453826103a3565b9050602081019050919050565b82818337600083830152505050565b600061048261047d8461042f565b610414565b90508281526020810184848401111561049e5761049d61039e565b5b6104a9848285610460565b509392505050565b600082601f8301126104c6576104c5610399565b5b81356104d684826020860161046f565b91505092915050565b6000806000606084860312156104f8576104f761038f565b5b600084013567ffffffffffffffff81111561051657610515610394565b5b610522868287016104b1565b935050602084013567ffffffffffffffff81111561054357610542610394565b5b61054f868287016104b1565b925050604084013567ffffffffffffffff8111156105705761056f610394565b5b61057c868287016104b1565b9150509250925092565b60006020828403121561059c5761059b61038f565b5b600082013567ffffffffffffffff8111156105ba576105b9610394565b5b6105c6848285016104b1565b91505092915050565b600081519050919050565b600082825260208201905092915050565b60005b838110156106095780820151818401526020810190506105ee565b60008484015250505050565b6000610620826105cf565b61062a81856105da565b935061063a8185602086016105eb565b610643816103a3565b840191505092915050565b6000819050919050565b6106618161064e565b82525050565b600060608201905081810360008301526106818186610615565b905081810360208301526106958185610615565b90506106a46040830184610658565b949350505050565b600073ffffffffffffffffffffffffffffffffffffffff82169050919050565b60006106d7826106ac565b9050919050565b6106e7816106cc565b82525050565b600060208201905061070260008301846106de565b92915050565b7f4f6e6c792061646d696e2063616e20706572666f726d2074686973206163746960008201527f6f6e000000000000000000000000000000000000000000000000000000000000602082015250565b60006107646022836105da565b915061076f82610708565b604082019050919050565b6000602082019050818103600083015261079381610757565b9050919050565b600081905092915050565b60006107b0826105cf565b6107ba818561079a565b93506107ca8185602086016105eb565b80840191505092915050565b60006107e282846107a5565b915081905092915050565b7f4e487b7100000000000000000000000000000000000000000000000000000000600052602260045260246000fd5b6000600282049050600182168061083457607f821691505b602082108103610847576108466107ed565b5b50919050565b60008190508160005260206000209050919050565b60006020601f8301049050919050565b600082821b905092915050565b6000600883026108af7fffffffffffffffffffffffffffffffffffffffffffffffffffffffffffffffff82610872565b6108b98683610872565b95508019841693508086168417925050509392505050565b6000819050919050565b60006108f66108f16108ec8461064e565b6108d1565b61064e565b9050919050565b6000819050919050565b610910836108db565b61092461091c826108fd565b84845461087f565b825550505050565b600090565b61093961092c565b610944818484610907565b505050565b5b818110156109685761095d600082610931565b60018101905061094a565b5050565b601f8211156109ad5761097e8161084d565b61098784610862565b81016020851015610996578190505b6109aa6109a285610862565b830182610949565b50505b505050565b600082821c905092915050565b60006109d0600019846008026109b2565b1980831691505092915050565b60006109e983836109bf565b9150826002028217905092915050565b610a02826105cf565b67ffffffffffffffff811115610a1b57610a1a6103b4565b5b610a25825461081c565b610a3082828561096c565b600060209050601f831160018114610a635760008415610a51578287015190505b610a5b85826109dd565b865550610ac3565b601f198416610a718661084d565b60005b82811015610a9957848901518255600182019150602085019450602081019050610a74565b86831015610ab65784890151610ab2601f8916826109bf565b8355505b6001600288020188555050505b50505050505056fea2646970667358221220e1156a508ff655a11c39f3f1390578905855e81fc4a98f798abf1b92651f93c864736f6c634300081c0033",
  "linkReferences": {},
  "deployedLinkReferences": {}
}