{"contracts/DataRegistry.sol":{"DataRegistry":{"abi":[{"inputs":[],"stateMutability":"nonpayable","type":"constructor"},{"anonymous":false,"inputs":[{"indexed":true,"internalType":"string","name":"therapistUid","type":"string"},{"indexed":false,"internalType":"string","name":"hash","type":"string"},{"indexed":false,"internalType":"uint256","name":"timestamp","type":"uint256"}],"name":"CredentialStored","type":"event"},{"anonymous":false,"inputs":[{"indexed":true,"internalType":"string","name":"bookingId","type":"string"},{"indexed":false,"internalType":"string","name":"therapistId","type":"string"},{"indexed":false,"internalType":"string","name":"hash","type":"string"},{"indexed":false,"internalType":"uint256","name":"timestamp","type":"uint256"}],"name":"MedicalRecordAdded","type":"event"},{"inputs":[{"internalType":"string","name":"bookingId","type":"string"},{"internalType":"string","name":"therapistId","type":"string"},{"internalType":"string","name":"hash","type":"string"}],"name":"addMedicalRecord","outputs":[],"stateMutability":"nonpayable","type":"function"},{"inputs":[],"name":"admin","outputs":[{"internalType":"address","name":"","type":"address"}],"stateMutability":"view","type":"function"},{"inputs":[{"internalType":"string","name":"therapistUid","type":"string"}],"name":"getCredential","outputs":[{"internalType":"string","name":"hash","type":"string"},{"internalType":"uint256","name":"timestamp","type":"uint256"}],"stateMutability":"view","type":"function"},{"inputs":[{"internalType":"string","name":"bookingId","type":"string"}],"name":"getMedicalRecordProof","outputs":[{"internalType":"string","name":"therapistId","type":"string"},{"internalType":"string","name":"hash","type":"string"},{"internalType":"uint256","name":"timestamp","type":"uint256"}],"stateMutability":"view","type":"function"},{"inputs":[{"internalType":"string","name":"therapistUid","type":"string"},{"internalType":"string","name":"hash","type":"string"}],"name":"storeCredential","outputs":[],"stateMutability":"nonpayable","type":"function"}],"evm":{"bytecode":{"linkReferences":{},"object":"6080604052348015600f57600080fd5b50336000806101000a81548173ffffffffffffffffffffffffffffffffffffffff021916908373ffffffffffffffffffffffffffffffffffffffff1602179055506115008061005f6000396000f3fe608060405234801561001057600080fd5b50600436106100575760003560e01c8063285ba0971461005c578063720f019414610078578063d091187f14610094578063dfbf45a9146100c5578063f851a440146100f7575b600080fd5b610076600480360381019061007191906109cc565b610115565b005b610092600480360381019061008d9190610a73565b6103a7565b005b6100ae60048036038101906100a99190610aeb565b6105cc565b6040516100bc929190610bcc565b60405180910390f35b6100df60048036038101906100da9190610aeb565b6106a2565b6040516100ee93929190610bfc565b60405180910390f35b6100ff61084e565b60405161010c9190610c82565b60405180910390f35b60008054906101000a900473ffffffffffffffffffffffffffffffffffffffff1673ffffffffffffffffffffffffffffffffffffffff163373ffffffffffffffffffffffffffffffffffffffff16146101a3576040517f08c379a000000000000000000000000000000000000000000000000000000000815260040161019a90610d0f565b60405180910390fd5b60006001846040516101b59190610d6b565b908152602001604051809103902060010180546101d190610db1565b905014610213576040517f08c379a000000000000000000000000000000000000000000000000000000000815260040161020a90610e54565b60405180910390fd5b6000835111610257576040517f08c379a000000000000000000000000000000000000000000000000000000000815260040161024e90610ee6565b60405180910390fd5b600082511161029b576040517f08c379a000000000000000000000000000000000000000000000000000000000815260040161029290610f78565b60405180910390fd5b60008151116102df576040517f08c379a00000000000000000000000000000000000000000000000000000000081526004016102d69061100a565b60405180910390fd5b60405180606001604052808381526020018281526020014281525060018460405161030a9190610d6b565b9081526020016040518091039020600082015181600001908161032d91906111d6565b50602082015181600101908161034391906111d6565b50604082015181600201559050508260405161035f9190610d6b565b60405180910390207f62f4abd0c61a72ce478f25bc048cfb6cf4659264621cfec56b5fcc77b4e8435583834260405161039a93929190610bfc565b60405180910390a2505050565b60008054906101000a900473ffffffffffffffffffffffffffffffffffffffff1673ffffffffffffffffffffffffffffffffffffffff163373ffffffffffffffffffffffffffffffffffffffff1614610435576040517f08c379a000000000000000000000000000000000000000000000000000000000815260040161042c90610d0f565b60405180910390fd5b6000825111610479576040517f08c379a0000000000000000000000000000000000000000000000000000000008152600401610470906112f4565b60405180910390fd5b60008151116104bd576040517f08c379a00000000000000000000000000000000000000000000000000000000081526004016104b490611386565b60405180910390fd5b60006002836040516104cf9190610d6b565b908152602001604051809103902080546104e890610db1565b90501461052a576040517f08c379a000000000000000000000000000000000000000000000000000000000815260040161052190611418565b60405180910390fd5b8060028360405161053b9190610d6b565b9081526020016040518091039020908161055591906111d6565b50426003836040516105679190610d6b565b908152602001604051809103902081905550816040516105879190610d6b565b60405180910390207f0c45b7dfda23f22240897a94bd4d1f49e4e0ca2120780810d8e4f88baac13daf82426040516105c0929190610bcc565b60405180910390a25050565b606060006002836040516105e09190610d6b565b90815260200160405180910390206003846040516105fe9190610d6b565b90815260200160405180910390205481805461061990610db1565b80601f016020809104026020016040519081016040528092919081815260200182805461064590610db1565b80156106925780601f1061066757610100808354040283529160200191610692565b820191906000526020600020905b81548152906001019060200180831161067557829003601f168201915b5050505050915091509150915091565b6060806000806001856040516106b89190610d6b565b9081526020016040518091039020905060008160010180546106d990610db1565b90501161071b576040517f08c379a0000000000000000000000000000000000000000000000000000000008152600401610712906114aa565b60405180910390fd5b8060000181600101826002015482805461073490610db1565b80601f016020809104026020016040519081016040528092919081815260200182805461076090610db1565b80156107ad5780601f10610782576101008083540402835291602001916107ad565b820191906000526020600020905b81548152906001019060200180831161079057829003601f168201915b505050505092508180546107c090610db1565b80601f01602080910402602001604051908101604052809291908181526020018280546107ec90610db1565b80156108395780601f1061080e57610100808354040283529160200191610839565b820191906000526020600020905b81548152906001019060200180831161081c57829003601f168201915b50505050509150935093509350509193909250565b60008054906101000a900473ffffffffffffffffffffffffffffffffffffffff1681565b6000604051905090565b600080fd5b600080fd5b600080fd5b600080fd5b6000601f19601f8301169050919050565b7f4e487b7100000000000000000000000000000000000000000000000000000000600052604160045260246000fd5b6108d982610890565b810181811067ffffffffffffffff821117156108f8576108f76108a1565b5b80604052505050565b600061090b610872565b905061091782826108d0565b919050565b600067ffffffffffffffff821115610937576109366108a1565b5b61094082610890565b9050602081019050919050565b82818337600083830152505050565b600061096f61096a8461091c565b610901565b90508281526020810184848401111561098b5761098a61088b565b5b61099684828561094d565b509392505050565b600082601f8301126109b3576109b2610886565b5b81356109c384826020860161095c565b91505092915050565b6000806000606084860312156109e5576109e461087c565b5b600084013567ffffffffffffffff811115610a0357610a02610881565b5b610a0f8682870161099e565b935050602084013567ffffffffffffffff811115610a3057610a2f610881565b5b610a3c8682870161099e565b925050604084013567ffffffffffffffff811115610a5d57610a5c610881565b5b610a698682870161099e565b9150509250925092565b60008060408385031215610a8a57610a8961087c565b5b600083013567ffffffffffffffff811115610aa857610aa7610881565b5b610ab48582860161099e565b925050602083013567ffffffffffffffff811115610ad557610ad4610881565b5b610ae18582860161099e565b9150509250929050565b600060208284031215610b0157610b0061087c565b5b600082013567ffffffffffffffff811115610b1f57610b1e610881565b5b610b2b8482850161099e565b91505092915050565b600081519050919050565b600082825260208201905092915050565b60005b83811015610b6e578082015181840152602081019050610b53565b60008484015250505050565b6000610b8582610b34565b610b8f8185610b3f565b9350610b9f818560208601610b50565b610ba881610890565b840191505092915050565b6000819050919050565b610bc681610bb3565b82525050565b60006040820190508181036000830152610be68185610b7a565b9050610bf56020830184610bbd565b9392505050565b60006060820190508181036000830152610c168186610b7a565b90508181036020830152610c2a8185610b7a565b9050610c396040830184610bbd565b949350505050565b600073ffffffffffffffffffffffffffffffffffffffff82169050919050565b6000610c6c82610c41565b9050919050565b610c7c81610c61565b82525050565b6000602082019050610c976000830184610c73565b92915050565b7f444154455245473a204f6e6c792061646d696e20286261636b656e642920636160008201527f6e20706572666f726d207468697320616374696f6e2e00000000000000000000602082015250565b6000610cf9603683610b3f565b9150610d0482610c9d565b604082019050919050565b60006020820190508181036000830152610d2881610cec565b9050919050565b600081905092915050565b6000610d4582610b34565b610d4f8185610d2f565b9350610d5f818560208601610b50565b80840191505092915050565b6000610d778284610d3a565b915081905092915050565b7f4e487b7100000000000000000000000000000000000000000000000000000000600052602260045260246000fd5b60006002820490506001821680610dc957607f821691505b602082108103610ddc57610ddb610d82565b5b50919050565b7f444154455245473a205265636f72642070726f6f6620616c726561647920657860008201527f6973747320666f72207468697320626f6f6b696e672049442e00000000000000602082015250565b6000610e3e603983610b3f565b9150610e4982610de2565b604082019050919050565b60006020820190508181036000830152610e6d81610e31565b9050919050565b7f444154455245473a20426f6f6b696e672049442063616e6e6f7420626520656d60008201527f7074792e00000000000000000000000000000000000000000000000000000000602082015250565b6000610ed0602483610b3f565b9150610edb82610e74565b604082019050919050565b60006020820190508181036000830152610eff81610ec3565b9050919050565b7f444154455245473a205468657261706973742049442063616e6e6f742062652060008201527f656d7074792e0000000000000000000000000000000000000000000000000000602082015250565b6000610f62602683610b3f565b9150610f6d82610f06565b604082019050919050565b60006020820190508181036000830152610f9181610f55565b9050919050565b7f444154455245473a2048617368202870726f6f66292063616e6e6f742062652060008201527f656d7074792e0000000000000000000000000000000000000000000000000000602082015250565b6000610ff4602683610b3f565b9150610fff82610f98565b604082019050919050565b6000602082019050818103600083015261102381610fe7565b9050919050565b60008190508160005260206000209050919050565b60006020601f8301049050919050565b600082821b905092915050565b60006008830261108c7fffffffffffffffffffffffffffffffffffffffffffffffffffffffffffffffff8261104f565b611096868361104f565b95508019841693508086168417925050509392505050565b6000819050919050565b60006110d36110ce6110c984610bb3565b6110ae565b610bb3565b9050919050565b6000819050919050565b6110ed836110b8565b6111016110f9826110da565b84845461105c565b825550505050565b600090565b611116611109565b6111218184846110e4565b505050565b5b818110156111455761113a60008261110e565b600181019050611127565b5050565b601f82111561118a5761115b8161102a565b6111648461103f565b81016020851015611173578190505b61118761117f8561103f565b830182611126565b50505b505050565b600082821c905092915050565b60006111ad6000198460080261118f565b1980831691505092915050565b60006111c6838361119c565b9150826002028217905092915050565b6111df82610b34565b67ffffffffffffffff8111156111f8576111f76108a1565b5b6112028254610db1565b61120d828285611149565b600060209050601f831160018114611240576000841561122e578287015190505b61123885826111ba565b8655506112a0565b601f19841661124e8661102a565b60005b8281101561127657848901518255600182019150602085019450602081019050611251565b86831015611293578489015161128f601f89168261119c565b8355505b6001600288020188555050505b505050505050565b7f444154455245473a20546865726170697374205549442072657175697265642e600082015250565b60006112de602083610b3f565b91506112e9826112a8565b602082019050919050565b6000602082019050818103600083015261130d816112d1565b9050919050565b7f444154455245473a2043726564656e7469616c2048617368207265717569726560008201527f642e000000000000000000000000000000000000000000000000000000000000602082015250565b6000611370602283610b3f565b915061137b82611314565b604082019050919050565b6000602082019050818103600083015261139f81611363565b9050919050565b7f444154455245473a2043726564656e7469616c20616c72656164792073746f7260008201527f65642e0000000000000000000000000000000000000000000000000000000000602082015250565b6000611402602383610b3f565b915061140d826113a6565b604082019050919050565b60006020820190508181036000830152611431816113f5565b9050919050565b7f444154455245473a204d65646963616c207265636f72642070726f6f66206e6f60008201527f7420666f756e6420666f7220746869732049442e000000000000000000000000602082015250565b6000611494603483610b3f565b915061149f82611438565b604082019050919050565b600060208201905081810360008301526114c381611487565b905091905056fea264697066735822122091d4af867364aedc5ef747ac36377f1d77dfc8ede4121a1f2edbacff40e295e264736f6c634300081c0033","opcodes":"PUSH1 0x80 PUSH1 0x40 MSTORE CALLVALUE DUP1 ISZERO PUSH1 0xF JUMPI PUSH1 0x0 DUP1 REVERT JUMPDEST POP CALLER PUSH1 0x0 DUP1 PUSH2 0x100 EXP DUP2 SLOAD DUP2 PUSH20 0xFFFFFFFFFFFFFFFFFFFFFFFFFFFFFFFFFFFFFFFF MUL NOT AND SWAP1 DUP4 PUSH20 0xFFFFFFFFFFFFFFFFFFFFFFFFFFFFFFFFFFFFFFFF AND MUL OR SWAP1 SSTORE POP PUSH2 0x1500 DUP1 PUSH2 0x5F PUSH1 0x0 CODECOPY PUSH1 0x0 RETURN INVALID PUSH1 0x80 PUSH1 0x40 MSTORE CALLVALUE DUP1 ISZERO PUSH2 0x10 JUMPI PUSH1 0x0 DUP1 REVERT JUMPDEST POP PUSH1 0x4 CALLDATASIZE LT PUSH2 0x57 JUMPI PUSH1 0x0 CALLDATALOAD PUSH1 0xE0 SHR DUP1 PUSH4 0x285BA097 EQ PUSH2 0x5C JUMPI DUP1 PUSH4 0x720F0194 EQ PUSH2 0x78 JUMPI DUP1 PUSH4 0xD091187F EQ PUSH2 0x94 JUMPI DUP1 PUSH4 0xDFBF45A9 EQ PUSH2 0xC5 JUMPI DUP1 PUSH4 0xF851A440 EQ PUSH2 0xF7 JUMPI JUMPDEST PUSH1 0x0 DUP1 REVERT JUMPDEST PUSH2 0x76 PUSH1 0x4 DUP1 CALLDATASIZE SUB DUP2 ADD SWAP1 PUSH2 0x71 SWAP2 SWAP1 PUSH2 0x9CC JUMP JUMPDEST PUSH2 0x115 JUMP JUMPDEST STOP JUMPDEST PUSH2 0x92 PUSH1 0x4 DUP1 CALLDATASIZE SUB DUP2 ADD SWAP1 PUSH2 0x8D SWAP2 SWAP1 PUSH2 0xA73 JUMP JUMPDEST PUSH2 0x3A7 JUMP JUMPDEST STOP JUMPDEST PUSH2 0xAE PUSH1 0x4 DUP1 CALLDATASIZE SUB DUP2 ADD SWAP1 PUSH2 0xA9 SWAP2 SWAP1 PUSH2 0xAEB JUMP JUMPDEST PUSH2 0x5CC JUMP JUMPDEST PUSH1 0x40 MLOAD PUSH2 0xBC SWAP3 SWAP2 SWAP1 PUSH2 0xBCC JUMP JUMPDEST PUSH1 0x40 MLOAD DUP1 SWAP2 SUB SWAP1 RETURN JUMPDEST PUSH2 0xDF PUSH1 0x4 DUP1 CALLDATASIZE SUB DUP2 ADD SWAP1 PUSH2 0xDA SWAP2 SWAP1 PUSH2 0xAEB JUMP JUMPDEST PUSH2 0x6A2 JUMP JUMPDEST PUSH1 0x40 MLOAD PUSH2 0xEE SWAP4 SWAP3 SWAP2 SWAP1 PUSH2 0xBFC JUMP JUMPDEST PUSH1 0x40 MLOAD DUP1 SWAP2 SUB SWAP1 RETURN JUMPDEST PUSH2 0xFF PUSH2 0x84E JUMP JUMPDEST PUSH1 0x40 MLOAD PUSH2 0x10C SWAP2 SWAP1 PUSH2 0xC82 JUMP JUMPDEST PUSH1 0x40 MLOAD DUP1 SWAP2 SUB SWAP1 RETURN JUMPDEST PUSH1 0x0 DUP1 SLOAD SWAP1 PUSH2 0x100 EXP SWAP1 DIV PUSH20 0xFFFFFFFFFFFFFFFFFFFFFFFFFFFFFFFFFFFFFFFF AND PUSH20 0xFFFFFFFFFFFFFFFFFFFFFFFFFFFFFFFFFFFFFFFF AND CALLER PUSH20 0xFFFFFFFFFFFFFFFFFFFFFFFFFFFFFFFFFFFFFFFF AND EQ PUSH2 0x1A3 JUMPI PUSH1 0x40 MLOAD PUSH32 0x8C379A000000000000000000000000000000000000000000000000000000000 DUP2 MSTORE PUSH1 0x4 ADD PUSH2 0x19A SWAP1 PUSH2 0xD0F JUMP JUMPDEST PUSH1 0x40 MLOAD DUP1 SWAP2 SUB SWAP1 REVERT JUMPDEST PUSH1 0x0 PUSH1 0x1 DUP5 PUSH1 0x40 MLOAD PUSH2 0x1B5 SWAP2 SWAP1 PUSH2 0xD6B JUMP JUMPDEST SWAP1 DUP2 MSTORE PUSH1 0x20 ADD PUSH1 0x40 MLOAD DUP1 SWAP2 SUB SWAP1 KECCAK256 PUSH1 0x1 ADD DUP1 SLOAD PUSH2 0x1D1 SWAP1 PUSH2 0xDB1 JUMP JUMPDEST SWAP1 POP EQ PUSH2 0x213 JUMPI PUSH1 0x40 MLOAD PUSH32 0x8C379A000000000000000000000000000000000000000000000000000000000 DUP2 MSTORE PUSH1 0x4 ADD PUSH2 0x20A SWAP1 PUSH2 0xE54 JUMP JUMPDEST PUSH1 0x40 MLOAD DUP1 SWAP2 SUB SWAP1 REVERT JUMPDEST PUSH1 0x0 DUP4 MLOAD GT PUSH2 0x257 JUMPI PUSH1 0x40 MLOAD PUSH32 0x8C379A000000000000000000000000000000000000000000000000000000000 DUP2 MSTORE PUSH1 0x4 ADD PUSH2 0x24E SWAP1 PUSH2 0xEE6 JUMP JUMPDEST PUSH1 0x40 MLOAD DUP1 SWAP2 SUB SWAP1 REVERT JUMPDEST PUSH1 0x0 DUP3 MLOAD GT PUSH2 0x29B JUMPI PUSH1 0x40 MLOAD PUSH32 0x8C379A000000000000000000000000000000000000000000000000000000000 DUP2 MSTORE PUSH1 0x4 ADD PUSH2 0x292 SWAP1 PUSH2 0xF78 JUMP JUMPDEST PUSH1 0x40 MLOAD DUP1 SWAP2 SUB SWAP1 REVERT JUMPDEST PUSH1 0x0 DUP2 MLOAD GT PUSH2 0x2DF JUMPI PUSH1 0x40 MLOAD PUSH32 0x8C379A000000000000000000000000000000000000000000000000000000000 DUP2 MSTORE PUSH1 0x4 ADD PUSH2 0x2D6 SWAP1 PUSH2 0x100A JUMP JUMPDEST PUSH1 0x40 MLOAD DUP1 SWAP2 SUB SWAP1 REVERT JUMPDEST PUSH1 0x40 MLOAD DUP1 PUSH1 0x60 ADD PUSH1 0x40 MSTORE DUP1 DUP4 DUP2 MSTORE PUSH1 0x20 ADD DUP3 DUP2 MSTORE PUSH1 0x20 ADD TIMESTAMP DUP2 MSTORE POP PUSH1 0x1 DUP5 PUSH1 0x40 MLOAD PUSH2 0x30A SWAP2 SWAP1 PUSH2 0xD6B JUMP JUMPDEST SWAP1 DUP2 MSTORE PUSH1 0x20 ADD PUSH1 0x40 MLOAD DUP1 SWAP2 SUB SWAP1 KECCAK256 PUSH1 0x0 DUP3 ADD MLOAD DUP2 PUSH1 0x0 ADD SWAP1 DUP2 PUSH2 0x32D SWAP2 SWAP1 PUSH2 0x11D6 JUMP JUMPDEST POP PUSH1 0x20 DUP3 ADD MLOAD DUP2 PUSH1 0x1 ADD SWAP1 DUP2 PUSH2 0x343 SWAP2 SWAP1 PUSH2 0x11D6 JUMP JUMPDEST POP PUSH1 0x40 DUP3 ADD MLOAD DUP2 PUSH1 0x2 ADD SSTORE SWAP1 POP POP DUP3 PUSH1 0x40 MLOAD PUSH2 0x35F SWAP2 SWAP1 PUSH2 0xD6B JUMP JUMPDEST PUSH1 0x40 MLOAD DUP1 SWAP2 SUB SWAP1 KECCAK256 PUSH32 0x62F4ABD0C61A72CE478F25BC048CFB6CF4659264621CFEC56B5FCC77B4E84355 DUP4 DUP4 TIMESTAMP PUSH1 0x40 MLOAD PUSH2 0x39A SWAP4 SWAP3 SWAP2 SWAP1 PUSH2 0xBFC JUMP JUMPDEST PUSH1 0x40 MLOAD DUP1 SWAP2 SUB SWAP1 LOG2 POP POP POP JUMP JUMPDEST PUSH1 0x0 DUP1 SLOAD SWAP1 PUSH2 0x100 EXP SWAP1 DIV PUSH20 0xFFFFFFFFFFFFFFFFFFFFFFFFFFFFFFFFFFFFFFFF AND PUSH20 0xFFFFFFFFFFFFFFFFFFFFFFFFFFFFFFFFFFFFFFFF AND CALLER PUSH20 0xFFFFFFFFFFFFFFFFFFFFFFFFFFFFFFFFFFFFFFFF AND EQ PUSH2 0x435 JUMPI PUSH1 0x40 MLOAD PUSH32 0x8C379A000000000000000000000000000000000000000000000000000000000 DUP2 MSTORE PUSH1 0x4 ADD PUSH2 0x42C SWAP1 PUSH2 0xD0F JUMP JUMPDEST PUSH1 0x40 MLOAD DUP1 SWAP2 SUB SWAP1 REVERT JUMPDEST PUSH1 0x0 DUP3 MLOAD GT PUSH2 0x479 JUMPI PUSH1 0x40 MLOAD PUSH32 0x8C379A000000000000000000000000000000000000000000000000000000000 DUP2 MSTORE PUSH1 0x4 ADD PUSH2 0x470 SWAP1 PUSH2 0x12F4 JUMP JUMPDEST PUSH1 0x40 MLOAD DUP1 SWAP2 SUB SWAP1 REVERT JUMPDEST PUSH1 0x0 DUP2 MLOAD GT PUSH2 0x4BD JUMPI PUSH1 0x40 MLOAD PUSH32 0x8C379A000000000000000000000000000000000000000000000000000000000 DUP2 MSTORE PUSH1 0x4 ADD PUSH2 0x4B4 SWAP1 PUSH2 0x1386 JUMP JUMPDEST PUSH1 0x40 MLOAD DUP1 SWAP2 SUB SWAP1 REVERT JUMPDEST PUSH1 0x0 PUSH1 0x2 DUP4 PUSH1 0x40 MLOAD PUSH2 0x4CF SWAP2 SWAP1 PUSH2 0xD6B JUMP JUMPDEST SWAP1 DUP2 MSTORE PUSH1 0x20 ADD PUSH1 0x40 MLOAD DUP1 SWAP2 SUB SWAP1 KECCAK256 DUP1 SLOAD PUSH2 0x4E8 SWAP1 PUSH2 0xDB1 JUMP JUMPDEST SWAP1 POP EQ PUSH2 0x52A JUMPI PUSH1 0x40 MLOAD PUSH32 0x8C379A000000000000000000000000000000000000000000000000000000000 DUP2 MSTORE PUSH1 0x4 ADD PUSH2 0x521 SWAP1 PUSH2 0x1418 JUMP JUMPDEST PUSH1 0x40 MLOAD DUP1 SWAP2 SUB SWAP1 REVERT JUMPDEST DUP1 PUSH1 0x2 DUP4 PUSH1 0x40 MLOAD PUSH2 0x53B SWAP2 SWAP1 PUSH2 0xD6B JUMP JUMPDEST SWAP1 DUP2 MSTORE PUSH1 0x20 ADD PUSH1 0x40 MLOAD DUP1 SWAP2 SUB SWAP1 KECCAK256 SWAP1 DUP2 PUSH2 0x555 SWAP2 SWAP1 PUSH2 0x11D6 JUMP JUMPDEST POP TIMESTAMP PUSH1 0x3 DUP4 PUSH1 0x40 MLOAD PUSH2 0x567 SWAP2 SWAP1 PUSH2 0xD6B JUMP JUMPDEST SWAP1 DUP2 MSTORE PUSH1 0x20 ADD PUSH1 0x40 MLOAD DUP1 SWAP2 SUB SWAP1 KECCAK256 DUP2 SWAP1 SSTORE POP DUP2 PUSH1 0x40 MLOAD PUSH2 0x587 SWAP2 SWAP1 PUSH2 0xD6B JUMP JUMPDEST PUSH1 0x40 MLOAD DUP1 SWAP2 SUB SWAP1 KECCAK256 PUSH32 0xC45B7DFDA23F22240897A94BD4D1F49E4E0CA2120780810D8E4F88BAAC13DAF DUP3 TIMESTAMP PUSH1 0x40 MLOAD PUSH2 0x5C0 SWAP3 SWAP2 SWAP1 PUSH2 0xBCC JUMP JUMPDEST PUSH1 0x40 MLOAD DUP1 SWAP2 SUB SWAP1 LOG2 POP POP JUMP JUMPDEST PUSH1 0x60 PUSH1 0x0 PUSH1 0x2 DUP4 PUSH1 0x40 MLOAD PUSH2 0x5E0 SWAP2 SWAP1 PUSH2 0xD6B JUMP JUMPDEST SWAP1 DUP2 MSTORE PUSH1 0x20 ADD PUSH1 0x40 MLOAD DUP1 SWAP2 SUB SWAP1 KECCAK256 PUSH1 0x3 DUP5 PUSH1 0x40 MLOAD PUSH2 0x5FE SWAP2 SWAP1 PUSH2 0xD6B JUMP JUMPDEST SWAP1 DUP2 MSTORE PUSH1 0x20 ADD PUSH1 0x40 MLOAD DUP1 SWAP2 SUB SWAP1 KECCAK256 SLOAD DUP2 DUP1 SLOAD PUSH2 0x619 SWAP1 PUSH2 0xDB1 JUMP JUMPDEST DUP1 PUSH1 0x1F ADD PUSH1 0x20 DUP1 SWAP2 DIV MUL PUSH1 0x20 ADD PUSH1 0x40 MLOAD SWAP1 DUP2 ADD PUSH1 0x40 MSTORE DUP1 SWAP3 SWAP2 SWAP1 DUP2 DUP2 MSTORE PUSH1 0x20 ADD DUP3 DUP1 SLOAD PUSH2 0x645 SWAP1 PUSH2 0xDB1 JUMP JUMPDEST DUP1 ISZERO PUSH2 0x692 JUMPI DUP1 PUSH1 0x1F LT PUSH2 0x667 JUMPI PUSH2 0x100 DUP1 DUP4 SLOAD DIV MUL DUP4 MSTORE SWAP2 PUSH1 0x20 ADD SWAP2 PUSH2 0x692 JUMP JUMPDEST DUP3 ADD SWAP2 SWAP1 PUSH1 0x0 MSTORE PUSH1 0x20 PUSH1 0x0 KECCAK256 SWAP1 JUMPDEST DUP2 SLOAD DUP2 MSTORE SWAP1 PUSH1 0x1 ADD SWAP1 PUSH1 0x20 ADD DUP1 DUP4 GT PUSH2 0x675 JUMPI DUP3 SWAP1 SUB PUSH1 0x1F AND DUP3 ADD SWAP2 JUMPDEST POP POP POP POP POP SWAP2 POP SWAP2 POP SWAP2 POP SWAP2 POP SWAP2 JUMP JUMPDEST PUSH1 0x60 DUP1 PUSH1 0x0 DUP1 PUSH1 0x1 DUP6 PUSH1 0x40 MLOAD PUSH2 0x6B8 SWAP2 SWAP1 PUSH2 0xD6B JUMP JUMPDEST SWAP1 DUP2 MSTORE PUSH1 0x20 ADD PUSH1 0x40 MLOAD DUP1 SWAP2 SUB SWAP1 KECCAK256 SWAP1 POP PUSH1 0x0 DUP2 PUSH1 0x1 ADD DUP1 SLOAD PUSH2 0x6D9 SWAP1 PUSH2 0xDB1 JUMP JUMPDEST SWAP1 POP GT PUSH2 0x71B JUMPI PUSH1 0x40 MLOAD PUSH32 0x8C379A000000000000000000000000000000000000000000000000000000000 DUP2 MSTORE PUSH1 0x4 ADD PUSH2 0x712 SWAP1 PUSH2 0x14AA JUMP JUMPDEST PUSH1 0x40 MLOAD DUP1 SWAP2 SUB SWAP1 REVERT JUMPDEST DUP1 PUSH1 0x0 ADD DUP2 PUSH1 0x1 ADD DUP3 PUSH1 0x2 ADD SLOAD DUP3 DUP1 SLOAD PUSH2 0x734 SWAP1 PUSH2 0xDB1 JUMP JUMPDEST DUP1 PUSH1 0x1F ADD PUSH1 0x20 DUP1 SWAP2 DIV MUL PUSH1 0x20 ADD PUSH1 0x40 MLOAD SWAP1 DUP2 ADD PUSH1 0x40 MSTORE DUP1 SWAP3 SWAP2 SWAP1 DUP2 DUP2 MSTORE PUSH1 0x20 ADD DUP3 DUP1 SLOAD PUSH2 0x760 SWAP1 PUSH2 0xDB1 JUMP JUMPDEST DUP1 ISZERO PUSH2 0x7AD JUMPI DUP1 PUSH1 0x1F LT PUSH2 0x782 JUMPI PUSH2 0x100 DUP1 DUP4 SLOAD DIV MUL DUP4 MSTORE SWAP2 PUSH1 0x20 ADD SWAP2 PUSH2 0x7AD JUMP JUMPDEST DUP3 ADD SWAP2 SWAP1 PUSH1 0x0 MSTORE PUSH1 0x20 PUSH1 0x0 KECCAK256 SWAP1 JUMPDEST DUP2 SLOAD DUP2 MSTORE SWAP1 PUSH1 0x1 ADD SWAP1 PUSH1 0x20 ADD DUP1 DUP4 GT PUSH2 0x790 JUMPI DUP3 SWAP1 SUB PUSH1 0x1F AND DUP3 ADD SWAP2 JUMPDEST POP POP POP POP POP SWAP3 POP DUP2 DUP1 SLOAD PUSH2 0x7C0 SWAP1 PUSH2 0xDB1 JUMP JUMPDEST DUP1 PUSH1 0x1F ADD PUSH1 0x20 DUP1 SWAP2 DIV MUL PUSH1 0x20 ADD PUSH1 0x40 MLOAD SWAP1 DUP2 ADD PUSH1 0x40 MSTORE DUP1 SWAP3 SWAP2 SWAP1 DUP2 DUP2 MSTORE PUSH1 0x20 ADD DUP3 DUP1 SLOAD PUSH2 0x7EC SWAP1 PUSH2 0xDB1 JUMP JUMPDEST DUP1 ISZERO PUSH2 0x839 JUMPI DUP1 PUSH1 0x1F LT PUSH2 0x80E JUMPI PUSH2 0x100 DUP1 DUP4 SLOAD DIV MUL DUP4 MSTORE SWAP2 PUSH1 0x20 ADD SWAP2 PUSH2 0x839 JUMP JUMPDEST DUP3 ADD SWAP2 SWAP1 PUSH1 0x0 MSTORE PUSH1 0x20 PUSH1 0x0 KECCAK256 SWAP1 JUMPDEST DUP2 SLOAD DUP2 MSTORE SWAP1 PUSH1 0x1 ADD SWAP1 PUSH1 0x20 ADD DUP1 DUP4 GT PUSH2 0x81C JUMPI DUP3 SWAP1 SUB PUSH1 0x1F AND DUP3 ADD SWAP2 JUMPDEST POP POP POP POP POP SWAP2 POP SWAP4 POP SWAP4 POP SWAP4 POP POP SWAP2 SWAP4 SWAP1 SWAP3 POP JUMP JUMPDEST PUSH1 0x0 DUP1 SLOAD SWAP1 PUSH2 0x100 EXP SWAP1 DIV PUSH20 0xFFFFFFFFFFFFFFFFFFFFFFFFFFFFFFFFFFFFFFFF AND DUP2 JUMP JUMPDEST PUSH1 0x0 PUSH1 0x40 MLOAD SWAP1 POP SWAP1 JUMP JUMPDEST PUSH1 0x0 DUP1 REVERT JUMPDEST PUSH1 0x0 DUP1 REVERT JUMPDEST PUSH1 0x0 DUP1 REVERT JUMPDEST PUSH1 0x0 DUP1 REVERT JUMPDEST PUSH1 0x0 PUSH1 0x1F NOT PUSH1 0x1F DUP4 ADD AND SWAP1 POP SWAP2 SWAP1 POP JUMP JUMPDEST PUSH32 0x4E487B7100000000000000000000000000000000000000000000000000000000 PUSH1 0x0 MSTORE PUSH1 0x41 PUSH1 0x4 MSTORE PUSH1 0x24 PUSH1 0x0 REVERT JUMPDEST PUSH2 0x8D9 DUP3 PUSH2 0x890 JUMP JUMPDEST DUP2 ADD DUP2 DUP2 LT PUSH8 0xFFFFFFFFFFFFFFFF DUP3 GT OR ISZERO PUSH2 0x8F8 JUMPI PUSH2 0x8F7 PUSH2 0x8A1 JUMP JUMPDEST JUMPDEST DUP1 PUSH1 0x40 MSTORE POP POP POP JUMP JUMPDEST PUSH1 0x0 PUSH2 0x90B PUSH2 0x872 JUMP JUMPDEST SWAP1 POP PUSH2 0x917 DUP3 DUP3 PUSH2 0x8D0 JUMP JUMPDEST SWAP2 SWAP1 POP JUMP JUMPDEST PUSH1 0x0 PUSH8 0xFFFFFFFFFFFFFFFF DUP3 GT ISZERO PUSH2 0x937 JUMPI PUSH2 0x936 PUSH2 0x8A1 JUMP JUMPDEST JUMPDEST PUSH2 0x940 DUP3 PUSH2 0x890 JUMP JUMPDEST SWAP1 POP PUSH1 0x20 DUP2 ADD SWAP1 POP SWAP2 SWAP1 POP JUMP JUMPDEST DUP3 DUP2 DUP4 CALLDATACOPY PUSH1 0x0 DUP4 DUP4 ADD MSTORE POP POP POP JUMP JUMPDEST PUSH1 0x0 PUSH2 0x96F PUSH2 0x96A DUP5 PUSH2 0x91C JUMP JUMPDEST PUSH2 0x901 JUMP JUMPDEST SWAP1 POP DUP3 DUP2 MSTORE PUSH1 0x20 DUP2 ADD DUP5 DUP5 DUP5 ADD GT ISZERO PUSH2 0x98B JUMPI PUSH2 0x98A PUSH2 0x88B JUMP JUMPDEST JUMPDEST PUSH2 0x996 DUP5 DUP3 DUP6 PUSH2 0x94D JUMP JUMPDEST POP SWAP4 SWAP3 POP POP POP JUMP JUMPDEST PUSH1 0x0 DUP3 PUSH1 0x1F DUP4 ADD SLT PUSH2 0x9B3 JUMPI PUSH2 0x9B2 PUSH2 0x886 JUMP JUMPDEST JUMPDEST DUP2 CALLDATALOAD PUSH2 0x9C3 DUP5 DUP3 PUSH1 0x20 DUP7 ADD PUSH2 0x95C JUMP JUMPDEST SWAP2 POP POP SWAP3 SWAP2 POP POP JUMP JUMPDEST PUSH1 0x0 DUP1 PUSH1 0x0 PUSH1 0x60 DUP5 DUP7 SUB SLT ISZERO PUSH2 0x9E5 JUMPI PUSH2 0x9E4 PUSH2 0x87C JUMP JUMPDEST JUMPDEST PUSH1 0x0 DUP5 ADD CALLDATALOAD PUSH8 0xFFFFFFFFFFFFFFFF DUP2 GT ISZERO PUSH2 0xA03 JUMPI PUSH2 0xA02 PUSH2 0x881 JUMP JUMPDEST JUMPDEST PUSH2 0xA0F DUP7 DUP3 DUP8 ADD PUSH2 0x99E JUMP JUMPDEST SWAP4 POP POP PUSH1 0x20 DUP5 ADD CALLDATALOAD PUSH8 0xFFFFFFFFFFFFFFFF DUP2 GT ISZERO PUSH2 0xA30 JUMPI PUSH2 0xA2F PUSH2 0x881 JUMP JUMPDEST JUMPDEST PUSH2 0xA3C DUP7 DUP3 DUP8 ADD PUSH2 0x99E JUMP JUMPDEST SWAP3 POP POP PUSH1 0x40 DUP5 ADD CALLDATALOAD PUSH8 0xFFFFFFFFFFFFFFFF DUP2 GT ISZERO PUSH2 0xA5D JUMPI PUSH2 0xA5C PUSH2 0x881 JUMP JUMPDEST JUMPDEST PUSH2 0xA69 DUP7 DUP3 DUP8 ADD PUSH2 0x99E JUMP JUMPDEST SWAP2 POP POP SWAP3 POP SWAP3 POP SWAP3 JUMP JUMPDEST PUSH1 0x0 DUP1 PUSH1 0x40 DUP4 DUP6 SUB SLT ISZERO PUSH2 0xA8A JUMPI PUSH2 0xA89 PUSH2 0x87C JUMP JUMPDEST JUMPDEST PUSH1 0x0 DUP4 ADD CALLDATALOAD PUSH8 0xFFFFFFFFFFFFFFFF DUP2 GT ISZERO PUSH2 0xAA8 JUMPI PUSH2 0xAA7 PUSH2 0x881 JUMP JUMPDEST JUMPDEST PUSH2 0xAB4 DUP6 DUP3 DUP7 ADD PUSH2 0x99E JUMP JUMPDEST SWAP3 POP POP PUSH1 0x20 DUP4 ADD CALLDATALOAD PUSH8 0xFFFFFFFFFFFFFFFF DUP2 GT ISZERO PUSH2 0xAD5 JUMPI PUSH2 0xAD4 PUSH2 0x881 JUMP JUMPDEST JUMPDEST PUSH2 0xAE1 DUP6 DUP3 DUP7 ADD PUSH2 0x99E JUMP JUMPDEST SWAP2 POP POP SWAP3 POP SWAP3 SWAP1 POP JUMP JUMPDEST PUSH1 0x0 PUSH1 0x20 DUP3 DUP5 SUB SLT ISZERO PUSH2 0xB01 JUMPI PUSH2 0xB00 PUSH2 0x87C JUMP JUMPDEST JUMPDEST PUSH1 0x0 DUP3 ADD CALLDATALOAD PUSH8 0xFFFFFFFFFFFFFFFF DUP2 GT ISZERO PUSH2 0xB1F JUMPI PUSH2 0xB1E PUSH2 0x881 JUMP JUMPDEST JUMPDEST PUSH2 0xB2B DUP5 DUP3 DUP6 ADD PUSH2 0x99E JUMP JUMPDEST SWAP2 POP POP SWAP3 SWAP2 POP POP JUMP JUMPDEST PUSH1 0x0 DUP2 MLOAD SWAP1 POP SWAP2 SWAP1 POP JUMP JUMPDEST PUSH1 0x0 DUP3 DUP3 MSTORE PUSH1 0x20 DUP3 ADD SWAP1 POP SWAP3 SWAP2 POP POP JUMP JUMPDEST PUSH1 0x0 JUMPDEST DUP4 DUP2 LT ISZERO PUSH2 0xB6E JUMPI DUP1 DUP3 ADD MLOAD DUP2 DUP5 ADD MSTORE PUSH1 0x20 DUP2 ADD SWAP1 POP PUSH2 0xB53 JUMP JUMPDEST PUSH1 0x0 DUP5 DUP5 ADD MSTORE POP POP POP POP JUMP JUMPDEST PUSH1 0x0 PUSH2 0xB85 DUP3 PUSH2 0xB34 JUMP JUMPDEST PUSH2 0xB8F DUP2 DUP6 PUSH2 0xB3F JUMP JUMPDEST SWAP4 POP PUSH2 0xB9F DUP2 DUP6 PUSH1 0x20 DUP7 ADD PUSH2 0xB50 JUMP JUMPDEST PUSH2 0xBA8 DUP2 PUSH2 0x890 JUMP JUMPDEST DUP5 ADD SWAP2 POP POP SWAP3 SWAP2 POP POP JUMP JUMPDEST PUSH1 0x0 DUP2 SWAP1 POP SWAP2 SWAP1 POP JUMP JUMPDEST PUSH2 0xBC6 DUP2 PUSH2 0xBB3 JUMP JUMPDEST DUP3 MSTORE POP POP JUMP JUMPDEST PUSH1 0x0 PUSH1 0x40 DUP3 ADD SWAP1 POP DUP2 DUP2 SUB PUSH1 0x0 DUP4 ADD MSTORE PUSH2 0xBE6 DUP2 DUP6 PUSH2 0xB7A JUMP JUMPDEST SWAP1 POP PUSH2 0xBF5 PUSH1 0x20 DUP4 ADD DUP5 PUSH2 0xBBD JUMP JUMPDEST SWAP4 SWAP3 POP POP POP JUMP JUMPDEST PUSH1 0x0 PUSH1 0x60 DUP3 ADD SWAP1 POP DUP2 DUP2 SUB PUSH1 0x0 DUP4 ADD MSTORE PUSH2 0xC16 DUP2 DUP7 PUSH2 0xB7A JUMP JUMPDEST SWAP1 POP DUP2 DUP2 SUB PUSH1 0x20 DUP4 ADD MSTORE PUSH2 0xC2A DUP2 DUP6 PUSH2 0xB7A JUMP JUMPDEST SWAP1 POP PUSH2 0xC39 PUSH1 0x40 DUP4 ADD DUP5 PUSH2 0xBBD JUMP JUMPDEST SWAP5 SWAP4 POP POP POP POP JUMP JUMPDEST PUSH1 0x0 PUSH20 0xFFFFFFFFFFFFFFFFFFFFFFFFFFFFFFFFFFFFFFFF DUP3 AND SWAP1 POP SWAP2 SWAP1 POP JUMP JUMPDEST PUSH1 0x0 PUSH2 0xC6C DUP3 PUSH2 0xC41 JUMP JUMPDEST SWAP1 POP SWAP2 SWAP1 POP JUMP JUMPDEST PUSH2 0xC7C DUP2 PUSH2 0xC61 JUMP JUMPDEST DUP3 MSTORE POP POP JUMP JUMPDEST PUSH1 0x0 PUSH1 0x20 DUP3 ADD SWAP1 POP PUSH2 0xC97 PUSH1 0x0 DUP4 ADD DUP5 PUSH2 0xC73 JUMP JUMPDEST SWAP3 SWAP2 POP POP JUMP JUMPDEST PUSH32 0x444154455245473A204F6E6C792061646D696E20286261636B656E6429206361 PUSH1 0x0 DUP3 ADD MSTORE PUSH32 0x6E20706572666F726D207468697320616374696F6E2E00000000000000000000 PUSH1 0x20 DUP3 ADD MSTORE POP JUMP JUMPDEST PUSH1 0x0 PUSH2 0xCF9 PUSH1 0x36 DUP4 PUSH2 0xB3F JUMP JUMPDEST SWAP2 POP PUSH2 0xD04 DUP3 PUSH2 0xC9D JUMP JUMPDEST PUSH1 0x40 DUP3 ADD SWAP1 POP SWAP2 SWAP1 POP JUMP JUMPDEST PUSH1 0x0 PUSH1 0x20 DUP3 ADD SWAP1 POP DUP2 DUP2 SUB PUSH1 0x0 DUP4 ADD MSTORE PUSH2 0xD28 DUP2 PUSH2 0xCEC JUMP JUMPDEST SWAP1 POP SWAP2 SWAP1 POP JUMP JUMPDEST PUSH1 0x0 DUP2 SWAP1 POP SWAP3 SWAP2 POP POP JUMP JUMPDEST PUSH1 0x0 PUSH2 0xD45 DUP3 PUSH2 0xB34 JUMP JUMPDEST PUSH2 0xD4F DUP2 DUP6 PUSH2 0xD2F JUMP JUMPDEST SWAP4 POP PUSH2 0xD5F DUP2 DUP6 PUSH1 0x20 DUP7 ADD PUSH2 0xB50 JUMP JUMPDEST DUP1 DUP5 ADD SWAP2 POP POP SWAP3 SWAP2 POP POP JUMP JUMPDEST PUSH1 0x0 PUSH2 0xD77 DUP3 DUP5 PUSH2 0xD3A JUMP JUMPDEST SWAP2 POP DUP2 SWAP1 POP SWAP3 SWAP2 POP POP JUMP JUMPDEST PUSH32 0x4E487B7100000000000000000000000000000000000000000000000000000000 PUSH1 0x0 MSTORE PUSH1 0x22 PUSH1 0x4 MSTORE PUSH1 0x24 PUSH1 0x0 REVERT JUMPDEST PUSH1 0x0 PUSH1 0x2 DUP3 DIV SWAP1 POP PUSH1 0x1 DUP3 AND DUP1 PUSH2 0xDC9 JUMPI PUSH1 0x7F DUP3 AND SWAP2 POP JUMPDEST PUSH1 0x20 DUP3 LT DUP2 SUB PUSH2 0xDDC JUMPI PUSH2 0xDDB PUSH2 0xD82 JUMP JUMPDEST JUMPDEST POP SWAP2 SWAP1 POP JUMP JUMPDEST PUSH32 0x444154455245473A205265636F72642070726F6F6620616C7265616479206578 PUSH1 0x0 DUP3 ADD MSTORE PUSH32 0x6973747320666F72207468697320626F6F6B696E672049442E00000000000000 PUSH1 0x20 DUP3 ADD MSTORE POP JUMP JUMPDEST PUSH1 0x0 PUSH2 0xE3E PUSH1 0x39 DUP4 PUSH2 0xB3F JUMP JUMPDEST SWAP2 POP PUSH2 0xE49 DUP3 PUSH2 0xDE2 JUMP JUMPDEST PUSH1 0x40 DUP3 ADD SWAP1 POP SWAP2 SWAP1 POP JUMP JUMPDEST PUSH1 0x0 PUSH1 0x20 DUP3 ADD SWAP1 POP DUP2 DUP2 SUB PUSH1 0x0 DUP4 ADD MSTORE PUSH2 0xE6D DUP2 PUSH2 0xE31 JUMP JUMPDEST SWAP1 POP SWAP2 SWAP1 POP JUMP JUMPDEST PUSH32 0x444154455245473A20426F6F6B696E672049442063616E6E6F7420626520656D PUSH1 0x0 DUP3 ADD MSTORE PUSH32 0x7074792E00000000000000000000000000000000000000000000000000000000 PUSH1 0x20 DUP3 ADD MSTORE POP JUMP JUMPDEST PUSH1 0x0 PUSH2 0xED0 PUSH1 0x24 DUP4 PUSH2 0xB3F JUMP JUMPDEST SWAP2 POP PUSH2 0xEDB DUP3 PUSH2 0xE74 JUMP JUMPDEST PUSH1 0x40 DUP3 ADD SWAP1 POP SWAP2 SWAP1 POP JUMP JUMPDEST PUSH1 0x0 PUSH1 0x20 DUP3 ADD SWAP1 POP DUP2 DUP2 SUB PUSH1 0x0 DUP4 ADD MSTORE PUSH2 0xEFF DUP2 PUSH2 0xEC3 JUMP JUMPDEST SWAP1 POP SWAP2 SWAP1 POP JUMP JUMPDEST PUSH32 0x444154455245473A205468657261706973742049442063616E6E6F7420626520 PUSH1 0x0 DUP3 ADD MSTORE PUSH32 0x656D7074792E0000000000000000000000000000000000000000000000000000 PUSH1 0x20 DUP3 ADD MSTORE POP JUMP JUMPDEST PUSH1 0x0 PUSH2 0xF62 PUSH1 0x26 DUP4 PUSH2 0xB3F JUMP JUMPDEST SWAP2 POP PUSH2 0xF6D DUP3 PUSH2 0xF06 JUMP JUMPDEST PUSH1 0x40 DUP3 ADD SWAP1 POP SWAP2 SWAP1 POP JUMP JUMPDEST PUSH1 0x0 PUSH1 0x20 DUP3 ADD SWAP1 POP DUP2 DUP2 SUB PUSH1 0x0 DUP4 ADD MSTORE PUSH2 0xF91 DUP2 PUSH2 0xF55 JUMP JUMPDEST SWAP1 POP SWAP2 SWAP1 POP JUMP JUMPDEST PUSH32 0x444154455245473A2048617368202870726F6F66292063616E6E6F7420626520 PUSH1 0x0 DUP3 ADD MSTORE PUSH32 0x656D7074792E0000000000000000000000000000000000000000000000000000 PUSH1 0x20 DUP3 ADD MSTORE POP JUMP JUMPDEST PUSH1 0x0 PUSH2 0xFF4 PUSH1 0x26 DUP4 PUSH2 0xB3F JUMP JUMPDEST SWAP2 POP PUSH2 0xFFF DUP3 PUSH2 0xF98 JUMP JUMPDEST PUSH1 0x40 DUP3 ADD SWAP1 POP SWAP2 SWAP1 POP JUMP JUMPDEST PUSH1 0x0 PUSH1 0x20 DUP3 ADD SWAP1 POP DUP2 DUP2 SUB PUSH1 0x0 DUP4 ADD MSTORE PUSH2 0x1023 DUP2 PUSH2 0xFE7 JUMP JUMPDEST SWAP1 POP SWAP2 SWAP1 POP JUMP JUMPDEST PUSH1 0x0 DUP2 SWAP1 POP DUP2 PUSH1 0x0 MSTORE PUSH1 0x20 PUSH1 0x0 KECCAK256 SWAP1 POP SWAP2 SWAP1 POP JUMP JUMPDEST PUSH1 0x0 PUSH1 0x20 PUSH1 0x1F DUP4 ADD DIV SWAP1 POP SWAP2 SWAP1 POP JUMP JUMPDEST PUSH1 0x0 DUP3 DUP3 SHL SWAP1 POP SWAP3 SWAP2 POP POP JUMP JUMPDEST PUSH1 0x0 PUSH1 0x8 DUP4 MUL PUSH2 0x108C PUSH32 0xFFFFFFFFFFFFFFFFFFFFFFFFFFFFFFFFFFFFFFFFFFFFFFFFFFFFFFFFFFFFFFFF DUP3 PUSH2 0x104F JUMP JUMPDEST PUSH2 0x1096 DUP7 DUP4 PUSH2 0x104F JUMP JUMPDEST SWAP6 POP DUP1 NOT DUP5 AND SWAP4 POP DUP1 DUP7 AND DUP5 OR SWAP3 POP POP POP SWAP4 SWAP3 POP POP POP JUMP JUMPDEST PUSH1 0x0 DUP2 SWAP1 POP SWAP2 SWAP1 POP JUMP JUMPDEST PUSH1 0x0 PUSH2 0x10D3 PUSH2 0x10CE PUSH2 0x10C9 DUP5 PUSH2 0xBB3 JUMP JUMPDEST PUSH2 0x10AE JUMP JUMPDEST PUSH2 0xBB3 JUMP JUMPDEST SWAP1 POP SWAP2 SWAP1 POP JUMP JUMPDEST PUSH1 0x0 DUP2 SWAP1 POP SWAP2 SWAP1 POP JUMP JUMPDEST PUSH2 0x10ED DUP4 PUSH2 0x10B8 JUMP JUMPDEST PUSH2 0x1101 PUSH2 0x10F9 DUP3 PUSH2 0x10DA JUMP JUMPDEST DUP5 DUP5 SLOAD PUSH2 0x105C JUMP JUMPDEST DUP3 SSTORE POP POP POP POP JUMP JUMPDEST PUSH1 0x0 SWAP1 JUMP JUMPDEST PUSH2 0x1116 PUSH2 0x1109 JUMP JUMPDEST PUSH2 0x1121 DUP2 DUP5 DUP5 PUSH2 0x10E4 JUMP JUMPDEST POP POP POP JUMP JUMPDEST JUMPDEST DUP2 DUP2 LT ISZERO PUSH2 0x1145 JUMPI PUSH2 0x113A PUSH1 0x0 DUP3 PUSH2 0x110E JUMP JUMPDEST PUSH1 0x1 DUP2 ADD SWAP1 POP PUSH2 0x1127 JUMP JUMPDEST POP POP JUMP JUMPDEST PUSH1 0x1F DUP3 GT ISZERO PUSH2 0x118A JUMPI PUSH2 0x115B DUP2 PUSH2 0x102A JUMP JUMPDEST PUSH2 0x1164 DUP5 PUSH2 0x103F JUMP JUMPDEST DUP2 ADD PUSH1 0x20 DUP6 LT ISZERO PUSH2 0x1173 JUMPI DUP2 SWAP1 POP JUMPDEST PUSH2 0x1187 PUSH2 0x117F DUP6 PUSH2 0x103F JUMP JUMPDEST DUP4 ADD DUP3 PUSH2 0x1126 JUMP JUMPDEST POP POP JUMPDEST POP POP POP JUMP JUMPDEST PUSH1 0x0 DUP3 DUP3 SHR SWAP1 POP SWAP3 SWAP2 POP POP JUMP JUMPDEST PUSH1 0x0 PUSH2 0x11AD PUSH1 0x0 NOT DUP5 PUSH1 0x8 MUL PUSH2 0x118F JUMP JUMPDEST NOT DUP1 DUP4 AND SWAP2 POP POP SWAP3 SWAP2 POP POP JUMP JUMPDEST PUSH1 0x0 PUSH2 0x11C6 DUP4 DUP4 PUSH2 0x119C JUMP JUMPDEST SWAP2 POP DUP3 PUSH1 0x2 MUL DUP3 OR SWAP1 POP SWAP3 SWAP2 POP POP JUMP JUMPDEST PUSH2 0x11DF DUP3 PUSH2 0xB34 JUMP JUMPDEST PUSH8 0xFFFFFFFFFFFFFFFF DUP2 GT ISZERO PUSH2 0x11F8 JUMPI PUSH2 0x11F7 PUSH2 0x8A1 JUMP JUMPDEST JUMPDEST PUSH2 0x1202 DUP3 SLOAD PUSH2 0xDB1 JUMP JUMPDEST PUSH2 0x120D DUP3 DUP3 DUP6 PUSH2 0x1149 JUMP JUMPDEST PUSH1 0x0 PUSH1 0x20 SWAP1 POP PUSH1 0x1F DUP4 GT PUSH1 0x1 DUP2 EQ PUSH2 0x1240 JUMPI PUSH1 0x0 DUP5 ISZERO PUSH2 0x122E JUMPI DUP3 DUP8 ADD MLOAD SWAP1 POP JUMPDEST PUSH2 0x1238 DUP6 DUP3 PUSH2 0x11BA JUMP JUMPDEST DUP7 SSTORE POP PUSH2 0x12A0 JUMP JUMPDEST PUSH1 0x1F NOT DUP5 AND PUSH2 0x124E DUP7 PUSH2 0x102A JUMP JUMPDEST PUSH1 0x0 JUMPDEST DUP3 DUP2 LT ISZERO PUSH2 0x1276 JUMPI DUP5 DUP10 ADD MLOAD DUP3 SSTORE PUSH1 0x1 DUP3 ADD SWAP2 POP PUSH1 0x20 DUP6 ADD SWAP5 POP PUSH1 0x20 DUP2 ADD SWAP1 POP PUSH2 0x1251 JUMP JUMPDEST DUP7 DUP4 LT ISZERO PUSH2 0x1293 JUMPI DUP5 DUP10 ADD MLOAD PUSH2 0x128F PUSH1 0x1F DUP10 AND DUP3 PUSH2 0x119C JUMP JUMPDEST DUP4 SSTORE POP JUMPDEST PUSH1 0x1 PUSH1 0x2 DUP9 MUL ADD DUP9 SSTORE POP POP POP JUMPDEST POP POP POP POP POP POP JUMP JUMPDEST PUSH32 0x444154455245473A20546865726170697374205549442072657175697265642E PUSH1 0x0 DUP3 ADD MSTORE POP JUMP JUMPDEST PUSH1 0x0 PUSH2 0x12DE PUSH1 0x20 DUP4 PUSH2 0xB3F JUMP JUMPDEST SWAP2 POP PUSH2 0x12E9 DUP3 PUSH2 0x12A8 JUMP JUMPDEST PUSH1 0x20 DUP3 ADD SWAP1 POP SWAP2 SWAP1 POP JUMP JUMPDEST PUSH1 0x0 PUSH1 0x20 DUP3 ADD SWAP1 POP DUP2 DUP2 SUB PUSH1 0x0 DUP4 ADD MSTORE PUSH2 0x130D DUP2 PUSH2 0x12D1 JUMP JUMPDEST SWAP1 POP SWAP2 SWAP1 POP JUMP JUMPDEST PUSH32 0x444154455245473A2043726564656E7469616C20486173682072657175697265 PUSH1 0x0 DUP3 ADD MSTORE PUSH32 0x642E000000000000000000000000000000000000000000000000000000000000 PUSH1 0x20 DUP3 ADD MSTORE POP JUMP JUMPDEST PUSH1 0x0 PUSH2 0x1370 PUSH1 0x22 DUP4 PUSH2 0xB3F JUMP JUMPDEST SWAP2 POP PUSH2 0x137B DUP3 PUSH2 0x1314 JUMP JUMPDEST PUSH1 0x40 DUP3 ADD SWAP1 POP SWAP2 SWAP1 POP JUMP JUMPDEST PUSH1 0x0 PUSH1 0x20 DUP3 ADD SWAP1 POP DUP2 DUP2 SUB PUSH1 0x0 DUP4 ADD MSTORE PUSH2 0x139F DUP2 PUSH2 0x1363 JUMP JUMPDEST SWAP1 POP SWAP2 SWAP1 POP JUMP JUMPDEST PUSH32 0x444154455245473A2043726564656E7469616C20616C72656164792073746F72 PUSH1 0x0 DUP3 ADD MSTORE PUSH32 0x65642E0000000000000000000000000000000000000000000000000000000000 PUSH1 0x20 DUP3 ADD MSTORE POP JUMP JUMPDEST PUSH1 0x0 PUSH2 0x1402 PUSH1 0x23 DUP4 PUSH2 0xB3F JUMP JUMPDEST SWAP2 POP PUSH2 0x140D DUP3 PUSH2 0x13A6 JUMP JUMPDEST PUSH1 0x40 DUP3 ADD SWAP1 POP SWAP2 SWAP1 POP JUMP JUMPDEST PUSH1 0x0 PUSH1 0x20 DUP3 ADD SWAP1 POP DUP2 DUP2 SUB PUSH1 0x0 DUP4 ADD MSTORE PUSH2 0x1431 DUP2 PUSH2 0x13F5 JUMP JUMPDEST SWAP1 POP SWAP2 SWAP1 POP JUMP JUMPDEST PUSH32 0x444154455245473A204D65646963616C207265636F72642070726F6F66206E6F PUSH1 0x0 DUP3 ADD MSTORE PUSH32 0x7420666F756E6420666F7220746869732049442E000000000000000000000000 PUSH1 0x20 DUP3 ADD MSTORE POP JUMP JUMPDEST PUSH1 0x0 PUSH2 0x1494 PUSH1 0x34 DUP4 PUSH2 0xB3F JUMP JUMPDEST SWAP2 POP PUSH2 0x149F DUP3 PUSH2 0x1438 JUMP JUMPDEST PUSH1 0x40 DUP3 ADD SWAP1 POP SWAP2 SWAP1 POP JUMP JUMPDEST PUSH1 0x0 PUSH1 0x20 DUP3 ADD SWAP1 POP DUP2 DUP2 SUB PUSH1 0x0 DUP4 ADD MSTORE PUSH2 0x14C3 DUP2 PUSH2 0x1487 JUMP JUMPDEST SWAP1 POP SWAP2 SWAP1 POP JUMP INVALID LOG2 PUSH5 0x6970667358 0x22 SLT KECCAK256 SWAP2 0xD4 0xAF DUP7 PUSH20 0x64AEDC5EF747AC36377F1D77DFC8EDE4121A1F2E 0xDB 0xAC SELFDESTRUCT BLOCKHASH 0xE2 SWAP6 0xE2 PUSH5 0x736F6C6343 STOP ADDMOD SHR STOP CALLER "},"methodIdentifiers":{"addMedicalRecord(string,string,string)":"285ba097","admin()":"f851a440","getCredential(string)":"d091187f","getMedicalRecordProof(string)":"dfbf45a9","storeCredential(string,string)":"720f0194"}}}}}