{
  "_format": "hh-sol-artifact-1",
  "contractName": "Consent",
  "sourceName": "contracts/Consent.sol",
  "abi": [
    {
      "anonymous": false,
      "inputs": [
        {
          "indexed": true,
          "internalType": "bytes32",
          "name": "userHash",
          "type": "bytes32"
        },
        {
          "indexed": false,
          "internalType": "uint256",
          "name": "timestamp",
          "type": "uint256"
        }
      ],
      "name": "ConsentGiven",
      "type": "event"
    },
    {
      "inputs": [
        {
          "internalType": "uint256",
          "name": "id",
          "type": "uint256"
        }
      ],
      "name": "getConsent",
      "outputs": [
        {
          "internalType": "bytes32",
          "name": "",
          "type": "bytes32"
        },
        {
          "internalType": "uint256",
          "name": "",
          "type": "uint256"
        }
      ],
      "stateMutability": "view",
      "type": "function"
    },
    {
      "inputs": [
        {
          "internalType": "bytes32",
          "name": "userHash",
          "type": "bytes32"
        }
      ],
      "name": "giveConsent",
      "outputs": [
        {
          "internalType": "uint256",
          "name": "",
          "type": "uint256"
        }
      ],
      "stateMutability": "nonpayable",
      "type": "function"
    },
    {
      "inputs": [
        {
          "internalType": "uint256",
          "name": "",
          "type": "uint256"
        }
      ],
      "name": "records",
      "outputs": [
        {
          "internalType": "bytes32",
          "name": "userHash",
          "type": "bytes32"
        },
        {
          "internalType": "uint256",
          "name": "timestamp",
          "type": "uint256"
        }
      ],
      "stateMutability": "view",
      "type": "function"
    },
    {
      "inputs": [],
      "name": "totalConsents",
      "outputs": [
        {
          "internalType": "uint256",
          "name": "",
          "type": "uint256"
        }
      ],
      "stateMutability": "view",
      "type": "function"
    }
  ],
  "bytecode": "0x6080604052348015600f57600080fd5b5061043f8061001f6000396000f3fe608060405234801561001057600080fd5b506004361061004c5760003560e01c806329c9317514610051578063344610671461006f5780637a0e09aa146100a0578063dbfddda4146100d1575b600080fd5b610059610101565b6040516100669190610263565b60405180910390f35b610089600480360381019061008491906102af565b61010d565b6040516100979291906102f5565b60405180910390f35b6100ba60048036038101906100b591906102af565b610141565b6040516100c89291906102f5565b60405180910390f35b6100eb60048036038101906100e6919061034a565b61019c565b6040516100f89190610263565b60405180910390f35b60008080549050905090565b6000818154811061011d57600080fd5b90600052602060002090600202016000915090508060000154908060010154905082565b600080600080848154811061015957610158610377565b5b9060005260206000209060020201604051806040016040529081600082015481526020016001820154815250509050806000015181602001519250925050915091565b6000806040518060400160405280848152602001428152509050600081908060018154018082558091505060019003906000526020600020906002020160009091909190915060008201518160000155602082015181600101555050827fdf6b18fad67453bab4f0e73f904a5bff10177d69d61373b6d7d84f21ad0e6733426040516102289190610263565b60405180910390a2600160008054905061024291906103d5565b915050919050565b6000819050919050565b61025d8161024a565b82525050565b60006020820190506102786000830184610254565b92915050565b600080fd5b61028c8161024a565b811461029757600080fd5b50565b6000813590506102a981610283565b92915050565b6000602082840312156102c5576102c461027e565b5b60006102d38482850161029a565b91505092915050565b6000819050919050565b6102ef816102dc565b82525050565b600060408201905061030a60008301856102e6565b6103176020830184610254565b9392505050565b610327816102dc565b811461033257600080fd5b50565b6000813590506103448161031e565b92915050565b6000602082840312156103605761035f61027e565b5b600061036e84828501610335565b91505092915050565b7f4e487b7100000000000000000000000000000000000000000000000000000000600052603260045260246000fd5b7f4e487b7100000000000000000000000000000000000000000000000000000000600052601160045260246000fd5b60006103e08261024a565b91506103eb8361024a565b9250828203905081811115610403576104026103a6565b5b9291505056fea2646970667358221220b11afcf02656da581ef5da8d6e482168f1ee0b87227afbf6de3dc2a9b6a3193c64736f6c634300081c0033",
  "linkReferences": {},
  "deployedLinkReferences": {}
}